{
    "_format": "hh-sol-artifact-1",
    "contractName": "p2p_new",
    "sourceName": "contracts/p2p_new.sol",
    "abi": [
        {
            "inputs": [],
            "stateMutability": "nonpayable",
            "type": "constructor"
        },
        {
            "inputs": [
                {
                    "internalType": "uint256",
                    "name": "amount",
                    "type": "uint256"
                },
                {
                    "internalType": "string",
                    "name": "symbol",
                    "type": "string"
                }
            ],
            "name": "depositToken",
            "outputs": [],
            "stateMutability": "nonpayable",
            "type": "function"
        },
        {
            "inputs": [],
            "name": "getSellOrders",
            "outputs": [
                {
                    "components": [
                        {
                            "internalType": "uint256",
                            "name": "sellOrderId",
                            "type": "uint256"
                        },
                        {
                            "internalType": "address",
                            "name": "sellerAddress",
                            "type": "address"
                        },
                        {
                            "internalType": "string",
                            "name": "tokenId",
                            "type": "string"
                        },
                        {
                            "internalType": "uint256",
                            "name": "availableTokens",
                            "type": "uint256"
                        },
                        {
                            "internalType": "string",
                            "name": "exchangeToken",
                            "type": "string"
                        },
                        {
                            "internalType": "uint256",
                            "name": "pricePerToken",
                            "type": "uint256"
                        }
                    ],
                    "internalType": "struct p2p_new.SellOrderDetails[]",
                    "name": "",
                    "type": "tuple[]"
                }
            ],
            "stateMutability": "view",
            "type": "function"
        },
        {
            "inputs": [
                {
                    "internalType": "address",
                    "name": "sellerAddress",
                    "type": "address"
                },
                {
                    "internalType": "string",
                    "name": "tokenId",
                    "type": "string"
                },
                {
                    "internalType": "uint256",
                    "name": "amount",
                    "type": "uint256"
                },
                {
                    "internalType": "string",
                    "name": "exchangeToken",
                    "type": "string"
                },
                {
                    "internalType": "uint256",
                    "name": "pricePerToken",
                    "type": "uint256"
                }
            ],
            "name": "postSellOrder",
            "outputs": [],
            "stateMutability": "nonpayable",
            "type": "function"
        },
        {
            "inputs": [
                {
                    "internalType": "address",
                    "name": "buyerAddress",
                    "type": "address"
                },
                {
                    "internalType": "uint256",
                    "name": "sellOrderID",
                    "type": "uint256"
                },
                {
                    "internalType": "string",
                    "name": "exchangeTokenId",
                    "type": "string"
                },
                {
                    "internalType": "uint256",
                    "name": "amount",
                    "type": "uint256"
                }
            ],
            "name": "processBuyOrder",
            "outputs": [],
            "stateMutability": "nonpayable",
            "type": "function"
        },
        {
            "inputs": [
                {
                    "internalType": "string",
                    "name": "symbol",
                    "type": "string"
                },
                {
                    "internalType": "address",
                    "name": "tokenAddress",
                    "type": "address"
                }
            ],
            "name": "whitelistToken",
            "outputs": [],
            "stateMutability": "nonpayable",
            "type": "function"
        },
        {
            "inputs": [
                {
                    "internalType": "string",
                    "name": "",
                    "type": "string"
                }
            ],
            "name": "whitelistedTokens",
            "outputs": [
                {
                    "internalType": "address",
                    "name": "",
                    "type": "address"
                }
            ],
            "stateMutability": "view",
            "type": "function"
        },
        {
            "inputs": [
                {
                    "internalType": "uint256",
                    "name": "sellOrderId",
                    "type": "uint256"
                }
            ],
            "name": "withdrawSellOrder",
            "outputs": [],
            "stateMutability": "nonpayable",
            "type": "function"
        },
        {
            "inputs": [
                {
                    "internalType": "uint256",
                    "name": "amount",
                    "type": "uint256"
                },
                {
                    "internalType": "string",
                    "name": "symbol",
                    "type": "string"
                }
            ],
            "name": "withdrawTokens",
            "outputs": [],
            "stateMutability": "nonpayable",
            "type": "function"
        }
    ],
    "bytecode": "0x608060405234801561001057600080fd5b5033600160006101000a81548173ffffffffffffffffffffffffffffffffffffffff021916908373ffffffffffffffffffffffffffffffffffffffff160217905550611b7f806100616000396000f3fe608060405234801561001057600080fd5b50600436106100885760003560e01c8063ad1adeb51161005b578063ad1adeb514610113578063bad5134b1461012f578063c3ec86601461014b578063c527426b1461016757610088565b806314dca6021461008d57806341623b72146100ab5780634b9c6183146100db5780639abdd730146100f7575b600080fd5b610095610183565b6040516100a2919061113e565b60405180910390f35b6100c560048036038101906100c091906112a9565b6103db565b6040516100d29190611301565b60405180910390f35b6100f560048036038101906100f09190611348565b610424565b005b610111600480360381019061010c91906113d0565b610515565b005b61012d60048036038101906101289190611453565b6108c7565b005b61014960048036038101906101449190611453565b610988565b005b610165600480360381019061016091906114af565b610a4b565b005b610181600480360381019061017c91906114dc565b610cea565b005b6060600060025467ffffffffffffffff8111156101a3576101a261117e565b5b6040519080825280602002602001820160405280156101dc57816020015b6101c9610eb6565b8152602001906001900390816101c15790505b50905060005b6002548110156103d357600360008281526020019081526020016000206040518060c0016040529081600082015481526020016001820160009054906101000a900473ffffffffffffffffffffffffffffffffffffffff1673ffffffffffffffffffffffffffffffffffffffff1673ffffffffffffffffffffffffffffffffffffffff16815260200160028201805461027a906115be565b80601f01602080910402602001604051908101604052809291908181526020018280546102a6906115be565b80156102f35780601f106102c8576101008083540402835291602001916102f3565b820191906000526020600020905b8154815290600101906020018083116102d657829003601f168201915b5050505050815260200160038201548152602001600482018054610316906115be565b80601f0160208091040260200160405190810160405280929190818152602001828054610342906115be565b801561038f5780601f106103645761010080835404028352916020019161038f565b820191906000526020600020905b81548152906001019060200180831161037257829003601f168201915b505050505081526020016005820154815250508282815181106103b5576103b46115ef565b5b602002602001018190525080806103cb9061164d565b9150506101e2565b508091505090565b6000818051602081018201805184825260208301602085012081835280955050505050506000915054906101000a900473ffffffffffffffffffffffffffffffffffffffff1681565b600160009054906101000a900473ffffffffffffffffffffffffffffffffffffffff1673ffffffffffffffffffffffffffffffffffffffff163373ffffffffffffffffffffffffffffffffffffffff16146104b4576040517f08c379a00000000000000000000000000000000000000000000000000000000081526004016104ab90611718565b60405180910390fd5b806000836040516104c59190611774565b908152602001604051809103902060006101000a81548173ffffffffffffffffffffffffffffffffffffffff021916908373ffffffffffffffffffffffffffffffffffffffff1602179055505050565b6000600360008581526020019081526020016000206040518060c0016040529081600082015481526020016001820160009054906101000a900473ffffffffffffffffffffffffffffffffffffffff1673ffffffffffffffffffffffffffffffffffffffff1673ffffffffffffffffffffffffffffffffffffffff1681526020016002820180546105a5906115be565b80601f01602080910402602001604051908101604052809291908181526020018280546105d1906115be565b801561061e5780601f106105f35761010080835404028352916020019161061e565b820191906000526020600020905b81548152906001019060200180831161060157829003601f168201915b5050505050815260200160038201548152602001600482018054610641906115be565b80601f016020809104026020016040519081016040528092919081815260200182805461066d906115be565b80156106ba5780601f1061068f576101008083540402835291602001916106ba565b820191906000526020600020905b81548152906001019060200180831161069d57829003601f168201915b5050505050815260200160058201548152505090506000816060015111610716576040517f08c379a000000000000000000000000000000000000000000000000000000000815260040161070d906117d7565b60405180910390fd5b60008160200151905060008460405161072f9190611774565b908152602001604051809103902060009054906101000a900473ffffffffffffffffffffffffffffffffffffffff1673ffffffffffffffffffffffffffffffffffffffff166323b872dd3383866040518463ffffffff1660e01b815260040161079a93929190611806565b6020604051808303816000875af11580156107b9573d6000803e3d6000fd5b505050506040513d601f19601f820116820180604052508101906107dd9190611875565b50600082604001516040516107f29190611774565b908152602001604051809103902060009054906101000a900473ffffffffffffffffffffffffffffffffffffffff1673ffffffffffffffffffffffffffffffffffffffff1663a9059cbb8784606001516040518363ffffffff1660e01b815260040161085f9291906118a2565b6020604051808303816000875af115801561087e573d6000803e3d6000fd5b505050506040513d601f19601f820116820180604052508101906108a29190611875565b5060006003600087815260200190815260200160002060030181905550505050505050565b6000816040516108d79190611774565b908152602001604051809103902060009054906101000a900473ffffffffffffffffffffffffffffffffffffffff1673ffffffffffffffffffffffffffffffffffffffff1663a9059cbb33846040518363ffffffff1660e01b81526004016109409291906118a2565b6020604051808303816000875af115801561095f573d6000803e3d6000fd5b505050506040513d601f19601f820116820180604052508101906109839190611875565b505050565b6000816040516109989190611774565b908152602001604051809103902060009054906101000a900473ffffffffffffffffffffffffffffffffffffffff1673ffffffffffffffffffffffffffffffffffffffff166323b872dd3330856040518463ffffffff1660e01b8152600401610a0393929190611806565b6020604051808303816000875af1158015610a22573d6000803e3d6000fd5b505050506040513d601f19601f82011682018060405250810190610a469190611875565b505050565b6000600360008381526020019081526020016000206040518060c0016040529081600082015481526020016001820160009054906101000a900473ffffffffffffffffffffffffffffffffffffffff1673ffffffffffffffffffffffffffffffffffffffff1673ffffffffffffffffffffffffffffffffffffffff168152602001600282018054610adb906115be565b80601f0160208091040260200160405190810160405280929190818152602001828054610b07906115be565b8015610b545780601f10610b2957610100808354040283529160200191610b54565b820191906000526020600020905b815481529060010190602001808311610b3757829003601f168201915b5050505050815260200160038201548152602001600482018054610b77906115be565b80601f0160208091040260200160405190810160405280929190818152602001828054610ba3906115be565b8015610bf05780601f10610bc557610100808354040283529160200191610bf0565b820191906000526020600020905b815481529060010190602001808311610bd357829003601f168201915b50505050508152602001600582015481525050905060008160400151604051610c199190611774565b908152602001604051809103902060009054906101000a900473ffffffffffffffffffffffffffffffffffffffff1673ffffffffffffffffffffffffffffffffffffffff1663a9059cbb3383606001516040518363ffffffff1660e01b8152600401610c869291906118a2565b6020604051808303816000875af1158015610ca5573d6000803e3d6000fd5b505050506040513d601f19601f82011682018060405250810190610cc99190611875565b50600060036000848152602001908152602001600020600301819055505050565b600084604051610cfa9190611774565b908152602001604051809103902060009054906101000a900473ffffffffffffffffffffffffffffffffffffffff1673ffffffffffffffffffffffffffffffffffffffff166323b872dd3330866040518463ffffffff1660e01b8152600401610d6593929190611806565b6020604051808303816000875af1158015610d84573d6000803e3d6000fd5b505050506040513d601f19601f82011682018060405250810190610da89190611875565b506040518060c0016040528060025481526020018673ffffffffffffffffffffffffffffffffffffffff168152602001858152602001848152602001838152602001828152506003600060025481526020019081526020016000206000820151816000015560208201518160010160006101000a81548173ffffffffffffffffffffffffffffffffffffffff021916908373ffffffffffffffffffffffffffffffffffffffff1602179055506040820151816002019081610e699190611a77565b50606082015181600301556080820151816004019081610e899190611a77565b5060a0820151816005015590505060026000815480929190610eaa9061164d565b91905055505050505050565b6040518060c0016040528060008152602001600073ffffffffffffffffffffffffffffffffffffffff168152602001606081526020016000815260200160608152602001600081525090565b600081519050919050565b600082825260208201905092915050565b6000819050602082019050919050565b6000819050919050565b610f4181610f2e565b82525050565b600073ffffffffffffffffffffffffffffffffffffffff82169050919050565b6000610f7282610f47565b9050919050565b610f8281610f67565b82525050565b600081519050919050565b600082825260208201905092915050565b60005b83811015610fc2578082015181840152602081019050610fa7565b60008484015250505050565b6000601f19601f8301169050919050565b6000610fea82610f88565b610ff48185610f93565b9350611004818560208601610fa4565b61100d81610fce565b840191505092915050565b600060c0830160008301516110306000860182610f38565b5060208301516110436020860182610f79565b506040830151848203604086015261105b8282610fdf565b91505060608301516110706060860182610f38565b50608083015184820360808601526110888282610fdf565b91505060a083015161109d60a0860182610f38565b508091505092915050565b60006110b48383611018565b905092915050565b6000602082019050919050565b60006110d482610f02565b6110de8185610f0d565b9350836020820285016110f085610f1e565b8060005b8581101561112c578484038952815161110d85826110a8565b9450611118836110bc565b925060208a019950506001810190506110f4565b50829750879550505050505092915050565b6000602082019050818103600083015261115881846110c9565b905092915050565b6000604051905090565b600080fd5b600080fd5b600080fd5b600080fd5b7f4e487b7100000000000000000000000000000000000000000000000000000000600052604160045260246000fd5b6111b682610fce565b810181811067ffffffffffffffff821117156111d5576111d461117e565b5b80604052505050565b60006111e8611160565b90506111f482826111ad565b919050565b600067ffffffffffffffff8211156112145761121361117e565b5b61121d82610fce565b9050602081019050919050565b82818337600083830152505050565b600061124c611247846111f9565b6111de565b90508281526020810184848401111561126857611267611179565b5b61127384828561122a565b509392505050565b600082601f8301126112905761128f611174565b5b81356112a0848260208601611239565b91505092915050565b6000602082840312156112bf576112be61116a565b5b600082013567ffffffffffffffff8111156112dd576112dc61116f565b5b6112e98482850161127b565b91505092915050565b6112fb81610f67565b82525050565b600060208201905061131660008301846112f2565b92915050565b61132581610f67565b811461133057600080fd5b50565b6000813590506113428161131c565b92915050565b6000806040838503121561135f5761135e61116a565b5b600083013567ffffffffffffffff81111561137d5761137c61116f565b5b6113898582860161127b565b925050602061139a85828601611333565b9150509250929050565b6113ad81610f2e565b81146113b857600080fd5b50565b6000813590506113ca816113a4565b92915050565b600080600080608085870312156113ea576113e961116a565b5b60006113f887828801611333565b9450506020611409878288016113bb565b935050604085013567ffffffffffffffff81111561142a5761142961116f565b5b6114368782880161127b565b9250506060611447878288016113bb565b91505092959194509250565b6000806040838503121561146a5761146961116a565b5b6000611478858286016113bb565b925050602083013567ffffffffffffffff8111156114995761149861116f565b5b6114a58582860161127b565b9150509250929050565b6000602082840312156114c5576114c461116a565b5b60006114d3848285016113bb565b91505092915050565b600080600080600060a086880312156114f8576114f761116a565b5b600061150688828901611333565b955050602086013567ffffffffffffffff8111156115275761152661116f565b5b6115338882890161127b565b9450506040611544888289016113bb565b935050606086013567ffffffffffffffff8111156115655761156461116f565b5b6115718882890161127b565b9250506080611582888289016113bb565b9150509295509295909350565b7f4e487b7100000000000000000000000000000000000000000000000000000000600052602260045260246000fd5b600060028204905060018216806115d657607f821691505b6020821081036115e9576115e861158f565b5b50919050565b7f4e487b7100000000000000000000000000000000000000000000000000000000600052603260045260246000fd5b7f4e487b7100000000000000000000000000000000000000000000000000000000600052601160045260246000fd5b600061165882610f2e565b91507fffffffffffffffffffffffffffffffffffffffffffffffffffffffffffffffff820361168a5761168961161e565b5b600182019050919050565b600082825260208201905092915050565b7f4f6e6c79204f776e657220697320616c6c6f77656420746f206578656375746560008201527f20746869732066756e6374696f6e000000000000000000000000000000000000602082015250565b6000611702602e83611695565b915061170d826116a6565b604082019050919050565b60006020820190508181036000830152611731816116f5565b9050919050565b600081905092915050565b600061174e82610f88565b6117588185611738565b9350611768818560208601610fa4565b80840191505092915050565b60006117808284611743565b915081905092915050565b7f53656c6c206f7264657220697320616c72656164792077697468647261776e00600082015250565b60006117c1601f83611695565b91506117cc8261178b565b602082019050919050565b600060208201905081810360008301526117f0816117b4565b9050919050565b61180081610f2e565b82525050565b600060608201905061181b60008301866112f2565b61182860208301856112f2565b61183560408301846117f7565b949350505050565b60008115159050919050565b6118528161183d565b811461185d57600080fd5b50565b60008151905061186f81611849565b92915050565b60006020828403121561188b5761188a61116a565b5b600061189984828501611860565b91505092915050565b60006040820190506118b760008301856112f2565b6118c460208301846117f7565b9392505050565b60008190508160005260206000209050919050565b60006020601f8301049050919050565b600082821b905092915050565b60006008830261192d7fffffffffffffffffffffffffffffffffffffffffffffffffffffffffffffffff826118f0565b61193786836118f0565b95508019841693508086168417925050509392505050565b6000819050919050565b600061197461196f61196a84610f2e565b61194f565b610f2e565b9050919050565b6000819050919050565b61198e83611959565b6119a261199a8261197b565b8484546118fd565b825550505050565b600090565b6119b76119aa565b6119c2818484611985565b505050565b5b818110156119e6576119db6000826119af565b6001810190506119c8565b5050565b601f821115611a2b576119fc816118cb565b611a05846118e0565b81016020851015611a14578190505b611a28611a20856118e0565b8301826119c7565b50505b505050565b600082821c905092915050565b6000611a4e60001984600802611a30565b1980831691505092915050565b6000611a678383611a3d565b9150826002028217905092915050565b611a8082610f88565b67ffffffffffffffff811115611a9957611a9861117e565b5b611aa382546115be565b611aae8282856119ea565b600060209050601f831160018114611ae15760008415611acf578287015190505b611ad98582611a5b565b865550611b41565b601f198416611aef866118cb565b60005b82811015611b1757848901518255600182019150602085019450602081019050611af2565b86831015611b345784890151611b30601f891682611a3d565b8355505b6001600288020188555050505b50505050505056fea2646970667358221220ba12cdb7b6966bdbd3ae4fc0dd97cb4d47c3a07acc67ef7fba65180dac8eb42064736f6c63430008120033",
    "linkReferences": {},
    "deployedLinkReferences": {}
}