{
    "_format": "hh-sol-artifact-1",
    "contractName": "p2p_new",
    "sourceName": "contracts/p2p_new.sol",
    "abi": [
        {
            "inputs": [],
            "stateMutability": "nonpayable",
            "type": "constructor"
        },
        {
            "inputs": [
                {
                    "internalType": "uint256",
                    "name": "amount",
                    "type": "uint256"
                },
                {
                    "internalType": "string",
                    "name": "symbol",
                    "type": "string"
                }
            ],
            "name": "depositToken",
            "outputs": [],
            "stateMutability": "nonpayable",
            "type": "function"
        },
        {
            "inputs": [],
            "name": "getSellOrders",
            "outputs": [
                {
                    "components": [
                        {
                            "internalType": "uint256",
                            "name": "sellOrderId",
                            "type": "uint256"
                        },
                        {
                            "internalType": "address",
                            "name": "sellerAddress",
                            "type": "address"
                        },
                        {
                            "internalType": "string",
                            "name": "tokenId",
                            "type": "string"
                        },
                        {
                            "internalType": "uint256",
                            "name": "availableTokens",
                            "type": "uint256"
                        },
                        {
                            "internalType": "string",
                            "name": "exchangeToken",
                            "type": "string"
                        },
                        {
                            "internalType": "uint256",
                            "name": "pricePerToken",
                            "type": "uint256"
                        }
                    ],
                    "internalType": "struct p2p_new.SellOrderDetails[]",
                    "name": "",
                    "type": "tuple[]"
                }
            ],
            "stateMutability": "view",
            "type": "function"
        },
        {
            "inputs": [
                {
                    "internalType": "address",
                    "name": "sellerAddress",
                    "type": "address"
                },
                {
                    "internalType": "string",
                    "name": "tokenId",
                    "type": "string"
                },
                {
                    "internalType": "uint256",
                    "name": "amount",
                    "type": "uint256"
                },
                {
                    "internalType": "string",
                    "name": "exchangeToken",
                    "type": "string"
                },
                {
                    "internalType": "uint256",
                    "name": "pricePerToken",
                    "type": "uint256"
                }
            ],
            "name": "postSellOrder",
            "outputs": [],
            "stateMutability": "nonpayable",
            "type": "function"
        },
        {
            "inputs": [
                {
                    "internalType": "address",
                    "name": "buyerAddress",
                    "type": "address"
                },
                {
                    "internalType": "uint256",
                    "name": "sellOrderID",
                    "type": "uint256"
                },
                {
                    "internalType": "string",
                    "name": "exchangeTokenId",
                    "type": "string"
                },
                {
                    "internalType": "uint256",
                    "name": "amount",
                    "type": "uint256"
                }
            ],
            "name": "processBuyOrder",
            "outputs": [],
            "stateMutability": "nonpayable",
            "type": "function"
        },
        {
            "inputs": [
                {
                    "internalType": "string",
                    "name": "symbol",
                    "type": "string"
                },
                {
                    "internalType": "address",
                    "name": "tokenAddress",
                    "type": "address"
                }
            ],
            "name": "whitelistToken",
            "outputs": [],
            "stateMutability": "nonpayable",
            "type": "function"
        },
        {
            "inputs": [
                {
                    "internalType": "string",
                    "name": "",
                    "type": "string"
                }
            ],
            "name": "whitelistedTokens",
            "outputs": [
                {
                    "internalType": "address",
                    "name": "",
                    "type": "address"
                }
            ],
            "stateMutability": "view",
            "type": "function"
        },
        {
            "inputs": [
                {
                    "internalType": "uint256",
                    "name": "sellOrderId",
                    "type": "uint256"
                }
            ],
            "name": "withdrawSellOrder",
            "outputs": [],
            "stateMutability": "nonpayable",
            "type": "function"
        },
        {
            "inputs": [
                {
                    "internalType": "uint256",
                    "name": "amount",
                    "type": "uint256"
                },
                {
                    "internalType": "string",
                    "name": "symbol",
                    "type": "string"
                }
            ],
            "name": "withdrawTokens",
            "outputs": [],
            "stateMutability": "nonpayable",
            "type": "function"
        }
    ],
    "bytecode": "0x608060405234801561001057600080fd5b5033600160006101000a81548173ffffffffffffffffffffffffffffffffffffffff021916908373ffffffffffffffffffffffffffffffffffffffff1602179055506118ff806100616000396000f3fe608060405234801561001057600080fd5b50600436106100885760003560e01c8063ad1adeb51161005b578063ad1adeb514610113578063bad5134b1461012f578063c3ec86601461014b578063c527426b1461016757610088565b806314dca6021461008d57806341623b72146100ab5780634b9c6183146100db5780639abdd730146100f7575b600080fd5b610095610183565b6040516100a29190610ebe565b60405180910390f35b6100c560048036038101906100c09190611029565b6103db565b6040516100d29190611081565b60405180910390f35b6100f560048036038101906100f091906110c8565b610424565b005b610111600480360381019061010c9190611150565b610515565b005b61012d600480360381019061012891906111d3565b6108c7565b005b610149600480360381019061014491906111d3565b610988565b005b6101656004803603810190610160919061122f565b610a4b565b005b610181600480360381019061017c919061125c565b610a6a565b005b6060600060025467ffffffffffffffff8111156101a3576101a2610efe565b5b6040519080825280602002602001820160405280156101dc57816020015b6101c9610c36565b8152602001906001900390816101c15790505b50905060005b6002548110156103d357600360008281526020019081526020016000206040518060c0016040529081600082015481526020016001820160009054906101000a900473ffffffffffffffffffffffffffffffffffffffff1673ffffffffffffffffffffffffffffffffffffffff1673ffffffffffffffffffffffffffffffffffffffff16815260200160028201805461027a9061133e565b80601f01602080910402602001604051908101604052809291908181526020018280546102a69061133e565b80156102f35780601f106102c8576101008083540402835291602001916102f3565b820191906000526020600020905b8154815290600101906020018083116102d657829003601f168201915b50505050508152602001600382015481526020016004820180546103169061133e565b80601f01602080910402602001604051908101604052809291908181526020018280546103429061133e565b801561038f5780601f106103645761010080835404028352916020019161038f565b820191906000526020600020905b81548152906001019060200180831161037257829003601f168201915b505050505081526020016005820154815250508282815181106103b5576103b461136f565b5b602002602001018190525080806103cb906113cd565b9150506101e2565b508091505090565b6000818051602081018201805184825260208301602085012081835280955050505050506000915054906101000a900473ffffffffffffffffffffffffffffffffffffffff1681565b600160009054906101000a900473ffffffffffffffffffffffffffffffffffffffff1673ffffffffffffffffffffffffffffffffffffffff163373ffffffffffffffffffffffffffffffffffffffff16146104b4576040517f08c379a00000000000000000000000000000000000000000000000000000000081526004016104ab90611498565b60405180910390fd5b806000836040516104c591906114f4565b908152602001604051809103902060006101000a81548173ffffffffffffffffffffffffffffffffffffffff021916908373ffffffffffffffffffffffffffffffffffffffff1602179055505050565b6000600360008581526020019081526020016000206040518060c0016040529081600082015481526020016001820160009054906101000a900473ffffffffffffffffffffffffffffffffffffffff1673ffffffffffffffffffffffffffffffffffffffff1673ffffffffffffffffffffffffffffffffffffffff1681526020016002820180546105a59061133e565b80601f01602080910402602001604051908101604052809291908181526020018280546105d19061133e565b801561061e5780601f106105f35761010080835404028352916020019161061e565b820191906000526020600020905b81548152906001019060200180831161060157829003601f168201915b50505050508152602001600382015481526020016004820180546106419061133e565b80601f016020809104026020016040519081016040528092919081815260200182805461066d9061133e565b80156106ba5780601f1061068f576101008083540402835291602001916106ba565b820191906000526020600020905b81548152906001019060200180831161069d57829003601f168201915b5050505050815260200160058201548152505090506000816060015111610716576040517f08c379a000000000000000000000000000000000000000000000000000000000815260040161070d90611557565b60405180910390fd5b60008160200151905060008460405161072f91906114f4565b908152602001604051809103902060009054906101000a900473ffffffffffffffffffffffffffffffffffffffff1673ffffffffffffffffffffffffffffffffffffffff166323b872dd3383866040518463ffffffff1660e01b815260040161079a93929190611586565b6020604051808303816000875af11580156107b9573d6000803e3d6000fd5b505050506040513d601f19601f820116820180604052508101906107dd91906115f5565b50600082604001516040516107f291906114f4565b908152602001604051809103902060009054906101000a900473ffffffffffffffffffffffffffffffffffffffff1673ffffffffffffffffffffffffffffffffffffffff1663a9059cbb8784606001516040518363ffffffff1660e01b815260040161085f929190611622565b6020604051808303816000875af115801561087e573d6000803e3d6000fd5b505050506040513d601f19601f820116820180604052508101906108a291906115f5565b5060006003600087815260200190815260200160002060030181905550505050505050565b6000816040516108d791906114f4565b908152602001604051809103902060009054906101000a900473ffffffffffffffffffffffffffffffffffffffff1673ffffffffffffffffffffffffffffffffffffffff1663a9059cbb33846040518363ffffffff1660e01b8152600401610940929190611622565b6020604051808303816000875af115801561095f573d6000803e3d6000fd5b505050506040513d601f19601f8201168201806040525081019061098391906115f5565b505050565b60008160405161099891906114f4565b908152602001604051809103902060009054906101000a900473ffffffffffffffffffffffffffffffffffffffff1673ffffffffffffffffffffffffffffffffffffffff166323b872dd3330856040518463ffffffff1660e01b8152600401610a0393929190611586565b6020604051808303816000875af1158015610a22573d6000803e3d6000fd5b505050506040513d601f19601f82011682018060405250810190610a4691906115f5565b505050565b6000600360008381526020019081526020016000206003018190555050565b600084604051610a7a91906114f4565b908152602001604051809103902060009054906101000a900473ffffffffffffffffffffffffffffffffffffffff1673ffffffffffffffffffffffffffffffffffffffff166323b872dd3330866040518463ffffffff1660e01b8152600401610ae593929190611586565b6020604051808303816000875af1158015610b04573d6000803e3d6000fd5b505050506040513d601f19601f82011682018060405250810190610b2891906115f5565b506040518060c0016040528060025481526020018673ffffffffffffffffffffffffffffffffffffffff168152602001858152602001848152602001838152602001828152506003600060025481526020019081526020016000206000820151816000015560208201518160010160006101000a81548173ffffffffffffffffffffffffffffffffffffffff021916908373ffffffffffffffffffffffffffffffffffffffff1602179055506040820151816002019081610be991906117f7565b50606082015181600301556080820151816004019081610c0991906117f7565b5060a0820151816005015590505060026000815480929190610c2a906113cd565b91905055505050505050565b6040518060c0016040528060008152602001600073ffffffffffffffffffffffffffffffffffffffff168152602001606081526020016000815260200160608152602001600081525090565b600081519050919050565b600082825260208201905092915050565b6000819050602082019050919050565b6000819050919050565b610cc181610cae565b82525050565b600073ffffffffffffffffffffffffffffffffffffffff82169050919050565b6000610cf282610cc7565b9050919050565b610d0281610ce7565b82525050565b600081519050919050565b600082825260208201905092915050565b60005b83811015610d42578082015181840152602081019050610d27565b60008484015250505050565b6000601f19601f8301169050919050565b6000610d6a82610d08565b610d748185610d13565b9350610d84818560208601610d24565b610d8d81610d4e565b840191505092915050565b600060c083016000830151610db06000860182610cb8565b506020830151610dc36020860182610cf9565b5060408301518482036040860152610ddb8282610d5f565b9150506060830151610df06060860182610cb8565b5060808301518482036080860152610e088282610d5f565b91505060a0830151610e1d60a0860182610cb8565b508091505092915050565b6000610e348383610d98565b905092915050565b6000602082019050919050565b6000610e5482610c82565b610e5e8185610c8d565b935083602082028501610e7085610c9e565b8060005b85811015610eac5784840389528151610e8d8582610e28565b9450610e9883610e3c565b925060208a01995050600181019050610e74565b50829750879550505050505092915050565b60006020820190508181036000830152610ed88184610e49565b905092915050565b6000604051905090565b600080fd5b600080fd5b600080fd5b600080fd5b7f4e487b7100000000000000000000000000000000000000000000000000000000600052604160045260246000fd5b610f3682610d4e565b810181811067ffffffffffffffff82111715610f5557610f54610efe565b5b80604052505050565b6000610f68610ee0565b9050610f748282610f2d565b919050565b600067ffffffffffffffff821115610f9457610f93610efe565b5b610f9d82610d4e565b9050602081019050919050565b82818337600083830152505050565b6000610fcc610fc784610f79565b610f5e565b905082815260208101848484011115610fe857610fe7610ef9565b5b610ff3848285610faa565b509392505050565b600082601f8301126110105761100f610ef4565b5b8135611020848260208601610fb9565b91505092915050565b60006020828403121561103f5761103e610eea565b5b600082013567ffffffffffffffff81111561105d5761105c610eef565b5b61106984828501610ffb565b91505092915050565b61107b81610ce7565b82525050565b60006020820190506110966000830184611072565b92915050565b6110a581610ce7565b81146110b057600080fd5b50565b6000813590506110c28161109c565b92915050565b600080604083850312156110df576110de610eea565b5b600083013567ffffffffffffffff8111156110fd576110fc610eef565b5b61110985828601610ffb565b925050602061111a858286016110b3565b9150509250929050565b61112d81610cae565b811461113857600080fd5b50565b60008135905061114a81611124565b92915050565b6000806000806080858703121561116a57611169610eea565b5b6000611178878288016110b3565b94505060206111898782880161113b565b935050604085013567ffffffffffffffff8111156111aa576111a9610eef565b5b6111b687828801610ffb565b92505060606111c78782880161113b565b91505092959194509250565b600080604083850312156111ea576111e9610eea565b5b60006111f88582860161113b565b925050602083013567ffffffffffffffff81111561121957611218610eef565b5b61122585828601610ffb565b9150509250929050565b60006020828403121561124557611244610eea565b5b60006112538482850161113b565b91505092915050565b600080600080600060a0868803121561127857611277610eea565b5b6000611286888289016110b3565b955050602086013567ffffffffffffffff8111156112a7576112a6610eef565b5b6112b388828901610ffb565b94505060406112c48882890161113b565b935050606086013567ffffffffffffffff8111156112e5576112e4610eef565b5b6112f188828901610ffb565b92505060806113028882890161113b565b9150509295509295909350565b7f4e487b7100000000000000000000000000000000000000000000000000000000600052602260045260246000fd5b6000600282049050600182168061135657607f821691505b6020821081036113695761136861130f565b5b50919050565b7f4e487b7100000000000000000000000000000000000000000000000000000000600052603260045260246000fd5b7f4e487b7100000000000000000000000000000000000000000000000000000000600052601160045260246000fd5b60006113d882610cae565b91507fffffffffffffffffffffffffffffffffffffffffffffffffffffffffffffffff820361140a5761140961139e565b5b600182019050919050565b600082825260208201905092915050565b7f4f6e6c79204f776e657220697320616c6c6f77656420746f206578656375746560008201527f20746869732066756e6374696f6e000000000000000000000000000000000000602082015250565b6000611482602e83611415565b915061148d82611426565b604082019050919050565b600060208201905081810360008301526114b181611475565b9050919050565b600081905092915050565b60006114ce82610d08565b6114d881856114b8565b93506114e8818560208601610d24565b80840191505092915050565b600061150082846114c3565b915081905092915050565b7f53656c6c206f7264657220697320616c72656164792077697468647261776e00600082015250565b6000611541601f83611415565b915061154c8261150b565b602082019050919050565b6000602082019050818103600083015261157081611534565b9050919050565b61158081610cae565b82525050565b600060608201905061159b6000830186611072565b6115a86020830185611072565b6115b56040830184611577565b949350505050565b60008115159050919050565b6115d2816115bd565b81146115dd57600080fd5b50565b6000815190506115ef816115c9565b92915050565b60006020828403121561160b5761160a610eea565b5b6000611619848285016115e0565b91505092915050565b60006040820190506116376000830185611072565b6116446020830184611577565b9392505050565b60008190508160005260206000209050919050565b60006020601f8301049050919050565b600082821b905092915050565b6000600883026116ad7fffffffffffffffffffffffffffffffffffffffffffffffffffffffffffffffff82611670565b6116b78683611670565b95508019841693508086168417925050509392505050565b6000819050919050565b60006116f46116ef6116ea84610cae565b6116cf565b610cae565b9050919050565b6000819050919050565b61170e836116d9565b61172261171a826116fb565b84845461167d565b825550505050565b600090565b61173761172a565b611742818484611705565b505050565b5b818110156117665761175b60008261172f565b600181019050611748565b5050565b601f8211156117ab5761177c8161164b565b61178584611660565b81016020851015611794578190505b6117a86117a085611660565b830182611747565b50505b505050565b600082821c905092915050565b60006117ce600019846008026117b0565b1980831691505092915050565b60006117e783836117bd565b9150826002028217905092915050565b61180082610d08565b67ffffffffffffffff81111561181957611818610efe565b5b611823825461133e565b61182e82828561176a565b600060209050601f831160018114611861576000841561184f578287015190505b61185985826117db565b8655506118c1565b601f19841661186f8661164b565b60005b8281101561189757848901518255600182019150602085019450602081019050611872565b868310156118b457848901516118b0601f8916826117bd565b8355505b6001600288020188555050505b50505050505056fea2646970667358221220199a1f200b570ecf90f7e63013d4926482bec52b6f219d23463e87357a5ec8e064736f6c63430008120033",
    "linkReferences": {},
    "deployedLinkReferences": {}
}