{
    "_format": "hh-sol-artifact-1",
    "contractName": "p2p",
    "sourceName": "contracts/p2p.sol",
    "abi": [
        {
            "inputs": [],
            "stateMutability": "nonpayable",
            "type": "constructor"
        },
        {
            "inputs": [],
            "name": "P2P_ADMIN",
            "outputs": [
                {
                    "internalType": "bytes32",
                    "name": "",
                    "type": "bytes32"
                }
            ],
            "stateMutability": "view",
            "type": "function"
        },
        {
            "inputs": [],
            "name": "USDc",
            "outputs": [
                {
                    "internalType": "contract USD",
                    "name": "",
                    "type": "address"
                }
            ],
            "stateMutability": "view",
            "type": "function"
        },
        {
            "inputs": [],
            "name": "USDt",
            "outputs": [
                {
                    "internalType": "contract USD",
                    "name": "",
                    "type": "address"
                }
            ],
            "stateMutability": "view",
            "type": "function"
        },
        {
            "inputs": [
                {
                    "internalType": "address",
                    "name": "spender",
                    "type": "address"
                },
                {
                    "internalType": "uint256",
                    "name": "amount",
                    "type": "uint256"
                }
            ],
            "name": "approveDeposit",
            "outputs": [],
            "stateMutability": "nonpayable",
            "type": "function"
        },
        {
            "inputs": [],
            "name": "getSellOrders",
            "outputs": [
                {
                    "components": [
                        {
                            "internalType": "uint256",
                            "name": "sellOrderId",
                            "type": "uint256"
                        },
                        {
                            "internalType": "address",
                            "name": "sellerAddress",
                            "type": "address"
                        },
                        {
                            "internalType": "string",
                            "name": "tokenId",
                            "type": "string"
                        },
                        {
                            "internalType": "uint256",
                            "name": "availableTokens",
                            "type": "uint256"
                        },
                        {
                            "internalType": "string",
                            "name": "exchangeToken",
                            "type": "string"
                        },
                        {
                            "internalType": "uint256",
                            "name": "pricePerToken",
                            "type": "uint256"
                        }
                    ],
                    "internalType": "struct p2p.SellOrderDetails[]",
                    "name": "",
                    "type": "tuple[]"
                }
            ],
            "stateMutability": "view",
            "type": "function"
        },
        {
            "inputs": [
                {
                    "internalType": "address",
                    "name": "sellerAddress",
                    "type": "address"
                },
                {
                    "internalType": "string",
                    "name": "tokenId",
                    "type": "string"
                },
                {
                    "internalType": "uint256",
                    "name": "availableTokens",
                    "type": "uint256"
                },
                {
                    "internalType": "string",
                    "name": "exchangeToken",
                    "type": "string"
                },
                {
                    "internalType": "uint256",
                    "name": "pricePerToken",
                    "type": "uint256"
                }
            ],
            "name": "postSellOrder",
            "outputs": [],
            "stateMutability": "nonpayable",
            "type": "function"
        },
        {
            "inputs": [
                {
                    "internalType": "address",
                    "name": "buyerAddress",
                    "type": "address"
                },
                {
                    "internalType": "uint256",
                    "name": "sellOrderID",
                    "type": "uint256"
                },
                {
                    "internalType": "string",
                    "name": "tokenId",
                    "type": "string"
                },
                {
                    "internalType": "uint256",
                    "name": "amount",
                    "type": "uint256"
                }
            ],
            "name": "processBuyOrder",
            "outputs": [],
            "stateMutability": "nonpayable",
            "type": "function"
        },
        {
            "inputs": [
                {
                    "internalType": "address",
                    "name": "_usdcTokenAddres",
                    "type": "address"
                },
                {
                    "internalType": "address",
                    "name": "_usdtTokenAddres",
                    "type": "address"
                }
            ],
            "name": "setTokenAddress",
            "outputs": [],
            "stateMutability": "nonpayable",
            "type": "function"
        },
        {
            "inputs": [
                {
                    "internalType": "uint256",
                    "name": "sellOrderId",
                    "type": "uint256"
                }
            ],
            "name": "withdrawSellOrder",
            "outputs": [],
            "stateMutability": "nonpayable",
            "type": "function"
        }
    ],
    "bytecode": "0x608060405234801561001057600080fd5b5033600260006101000a81548173ffffffffffffffffffffffffffffffffffffffff021916908373ffffffffffffffffffffffffffffffffffffffff160217905550611595806100616000396000f3fe608060405234801561001057600080fd5b50600436106100935760003560e01c8063afcc4ad511610066578063afcc4ad51461010c578063c3ec86601461012a578063c527426b14610146578063c7afe9f214610162578063eede27b61461017e57610093565b806314dca6021461009857806332387788146100b65780637d315cc5146100d25780639abdd730146100f0575b600080fd5b6100a061019c565b6040516100ad9190610bfc565b60405180910390f35b6100d060048036038101906100cb9190610c8a565b6103f4565b005b6100da610497565b6040516100e79190610ce3565b60405180910390f35b61010a60048036038101906101059190610e33565b6104bb565b005b6101146106e9565b6040516101219190610f15565b60405180910390f35b610144600480360381019061013f9190610f30565b61070d565b005b610160600480360381019061015b9190610f5d565b61072c565b005b61017c60048036038101906101779190611010565b610839565b005b61018661094e565b6040516101939190610f15565b60405180910390f35b6060600060035467ffffffffffffffff8111156101bc576101bb610d08565b5b6040519080825280602002602001820160405280156101f557816020015b6101e2610974565b8152602001906001900390816101da5790505b50905060005b6003548110156103ec57600460008281526020019081526020016000206040518060c0016040529081600082015481526020016001820160009054906101000a900473ffffffffffffffffffffffffffffffffffffffff1673ffffffffffffffffffffffffffffffffffffffff1673ffffffffffffffffffffffffffffffffffffffff1681526020016002820180546102939061107f565b80601f01602080910402602001604051908101604052809291908181526020018280546102bf9061107f565b801561030c5780601f106102e15761010080835404028352916020019161030c565b820191906000526020600020905b8154815290600101906020018083116102ef57829003601f168201915b505050505081526020016003820154815260200160048201805461032f9061107f565b80601f016020809104026020016040519081016040528092919081815260200182805461035b9061107f565b80156103a85780601f1061037d576101008083540402835291602001916103a8565b820191906000526020600020905b81548152906001019060200180831161038b57829003601f168201915b505050505081526020016005820154815250508282815181106103ce576103cd6110b0565b5b602002602001018190525080806103e49061110e565b9150506101fb565b508091505090565b60008054906101000a900473ffffffffffffffffffffffffffffffffffffffff1673ffffffffffffffffffffffffffffffffffffffff1663095ea7b383836040518363ffffffff1660e01b815260040161044f929190611174565b6020604051808303816000875af115801561046e573d6000803e3d6000fd5b505050506040513d601f19601f8201168201806040525081019061049291906111d5565b505050565b7f4b3dd2801370e798822e6477e6855d6c1cf0b2821b7e6a0a0c915d07b80f698781565b6000600460008581526020019081526020016000206040518060c0016040529081600082015481526020016001820160009054906101000a900473ffffffffffffffffffffffffffffffffffffffff1673ffffffffffffffffffffffffffffffffffffffff1673ffffffffffffffffffffffffffffffffffffffff16815260200160028201805461054b9061107f565b80601f01602080910402602001604051908101604052809291908181526020018280546105779061107f565b80156105c45780601f10610599576101008083540402835291602001916105c4565b820191906000526020600020905b8154815290600101906020018083116105a757829003601f168201915b50505050508152602001600382015481526020016004820180546105e79061107f565b80601f01602080910402602001604051908101604052809291908181526020018280546106139061107f565b80156106605780601f1061063557610100808354040283529160200191610660565b820191906000526020600020905b81548152906001019060200180831161064357829003601f168201915b50505050508152602001600582015481525050905060008160600151116106bc576040517f08c379a00000000000000000000000000000000000000000000000000000000081526004016106b39061125f565b60405180910390fd5b60008160200151905060006004600087815260200190815260200160002060030181905550505050505050565b60008054906101000a900473ffffffffffffffffffffffffffffffffffffffff1681565b6000600460008381526020019081526020016000206003018190555050565b6040518060c0016040528060035481526020018673ffffffffffffffffffffffffffffffffffffffff168152602001858152602001848152602001838152602001828152506004600060035481526020019081526020016000206000820151816000015560208201518160010160006101000a81548173ffffffffffffffffffffffffffffffffffffffff021916908373ffffffffffffffffffffffffffffffffffffffff16021790555060408201518160020190816107ec9190611421565b5060608201518160030155608082015181600401908161080c9190611421565b5060a082015181600501559050506003600081548092919061082d9061110e565b91905055505050505050565b600260009054906101000a900473ffffffffffffffffffffffffffffffffffffffff1673ffffffffffffffffffffffffffffffffffffffff163373ffffffffffffffffffffffffffffffffffffffff16146108c9576040517f08c379a00000000000000000000000000000000000000000000000000000000081526004016108c09061153f565b60405180910390fd5b816000806101000a81548173ffffffffffffffffffffffffffffffffffffffff021916908373ffffffffffffffffffffffffffffffffffffffff16021790555080600160006101000a81548173ffffffffffffffffffffffffffffffffffffffff021916908373ffffffffffffffffffffffffffffffffffffffff1602179055505050565b600160009054906101000a900473ffffffffffffffffffffffffffffffffffffffff1681565b6040518060c0016040528060008152602001600073ffffffffffffffffffffffffffffffffffffffff168152602001606081526020016000815260200160608152602001600081525090565b600081519050919050565b600082825260208201905092915050565b6000819050602082019050919050565b6000819050919050565b6109ff816109ec565b82525050565b600073ffffffffffffffffffffffffffffffffffffffff82169050919050565b6000610a3082610a05565b9050919050565b610a4081610a25565b82525050565b600081519050919050565b600082825260208201905092915050565b60005b83811015610a80578082015181840152602081019050610a65565b60008484015250505050565b6000601f19601f8301169050919050565b6000610aa882610a46565b610ab28185610a51565b9350610ac2818560208601610a62565b610acb81610a8c565b840191505092915050565b600060c083016000830151610aee60008601826109f6565b506020830151610b016020860182610a37565b5060408301518482036040860152610b198282610a9d565b9150506060830151610b2e60608601826109f6565b5060808301518482036080860152610b468282610a9d565b91505060a0830151610b5b60a08601826109f6565b508091505092915050565b6000610b728383610ad6565b905092915050565b6000602082019050919050565b6000610b92826109c0565b610b9c81856109cb565b935083602082028501610bae856109dc565b8060005b85811015610bea5784840389528151610bcb8582610b66565b9450610bd683610b7a565b925060208a01995050600181019050610bb2565b50829750879550505050505092915050565b60006020820190508181036000830152610c168184610b87565b905092915050565b6000604051905090565b600080fd5b600080fd5b610c3b81610a25565b8114610c4657600080fd5b50565b600081359050610c5881610c32565b92915050565b610c67816109ec565b8114610c7257600080fd5b50565b600081359050610c8481610c5e565b92915050565b60008060408385031215610ca157610ca0610c28565b5b6000610caf85828601610c49565b9250506020610cc085828601610c75565b9150509250929050565b6000819050919050565b610cdd81610cca565b82525050565b6000602082019050610cf86000830184610cd4565b92915050565b600080fd5b600080fd5b7f4e487b7100000000000000000000000000000000000000000000000000000000600052604160045260246000fd5b610d4082610a8c565b810181811067ffffffffffffffff82111715610d5f57610d5e610d08565b5b80604052505050565b6000610d72610c1e565b9050610d7e8282610d37565b919050565b600067ffffffffffffffff821115610d9e57610d9d610d08565b5b610da782610a8c565b9050602081019050919050565b82818337600083830152505050565b6000610dd6610dd184610d83565b610d68565b905082815260208101848484011115610df257610df1610d03565b5b610dfd848285610db4565b509392505050565b600082601f830112610e1a57610e19610cfe565b5b8135610e2a848260208601610dc3565b91505092915050565b60008060008060808587031215610e4d57610e4c610c28565b5b6000610e5b87828801610c49565b9450506020610e6c87828801610c75565b935050604085013567ffffffffffffffff811115610e8d57610e8c610c2d565b5b610e9987828801610e05565b9250506060610eaa87828801610c75565b91505092959194509250565b6000819050919050565b6000610edb610ed6610ed184610a05565b610eb6565b610a05565b9050919050565b6000610eed82610ec0565b9050919050565b6000610eff82610ee2565b9050919050565b610f0f81610ef4565b82525050565b6000602082019050610f2a6000830184610f06565b92915050565b600060208284031215610f4657610f45610c28565b5b6000610f5484828501610c75565b91505092915050565b600080600080600060a08688031215610f7957610f78610c28565b5b6000610f8788828901610c49565b955050602086013567ffffffffffffffff811115610fa857610fa7610c2d565b5b610fb488828901610e05565b9450506040610fc588828901610c75565b935050606086013567ffffffffffffffff811115610fe657610fe5610c2d565b5b610ff288828901610e05565b925050608061100388828901610c75565b9150509295509295909350565b6000806040838503121561102757611026610c28565b5b600061103585828601610c49565b925050602061104685828601610c49565b9150509250929050565b7f4e487b7100000000000000000000000000000000000000000000000000000000600052602260045260246000fd5b6000600282049050600182168061109757607f821691505b6020821081036110aa576110a9611050565b5b50919050565b7f4e487b7100000000000000000000000000000000000000000000000000000000600052603260045260246000fd5b7f4e487b7100000000000000000000000000000000000000000000000000000000600052601160045260246000fd5b6000611119826109ec565b91507fffffffffffffffffffffffffffffffffffffffffffffffffffffffffffffffff820361114b5761114a6110df565b5b600182019050919050565b61115f81610a25565b82525050565b61116e816109ec565b82525050565b60006040820190506111896000830185611156565b6111966020830184611165565b9392505050565b60008115159050919050565b6111b28161119d565b81146111bd57600080fd5b50565b6000815190506111cf816111a9565b92915050565b6000602082840312156111eb576111ea610c28565b5b60006111f9848285016111c0565b91505092915050565b600082825260208201905092915050565b7f53656c6c206f7264657220697320616c72656164792077697468647261776e00600082015250565b6000611249601f83611202565b915061125482611213565b602082019050919050565b600060208201905081810360008301526112788161123c565b9050919050565b60008190508160005260206000209050919050565b60006020601f8301049050919050565b600082821b905092915050565b6000600883026112e17fffffffffffffffffffffffffffffffffffffffffffffffffffffffffffffffff826112a4565b6112eb86836112a4565b95508019841693508086168417925050509392505050565b600061131e611319611314846109ec565b610eb6565b6109ec565b9050919050565b6000819050919050565b61133883611303565b61134c61134482611325565b8484546112b1565b825550505050565b600090565b611361611354565b61136c81848461132f565b505050565b5b8181101561139057611385600082611359565b600181019050611372565b5050565b601f8211156113d5576113a68161127f565b6113af84611294565b810160208510156113be578190505b6113d26113ca85611294565b830182611371565b50505b505050565b600082821c905092915050565b60006113f8600019846008026113da565b1980831691505092915050565b600061141183836113e7565b9150826002028217905092915050565b61142a82610a46565b67ffffffffffffffff81111561144357611442610d08565b5b61144d825461107f565b611458828285611394565b600060209050601f83116001811461148b5760008415611479578287015190505b6114838582611405565b8655506114eb565b601f1984166114998661127f565b60005b828110156114c15784890151825560018201915060208501945060208101905061149c565b868310156114de57848901516114da601f8916826113e7565b8355505b6001600288020188555050505b505050505050565b7f4e6f74206f776e65720000000000000000000000000000000000000000000000600082015250565b6000611529600983611202565b9150611534826114f3565b602082019050919050565b600060208201905081810360008301526115588161151c565b905091905056fea26469706673582212204bafa2d8141ece770224f98970780490d3c500051a5fb4778a9cff1f007e3cc564736f6c63430008120033",
    "linkReferences": {},
    "deployedLinkReferences": {}
}